{
  "contractName": "Finp2pERC20",
  "abi": [
    {
      "inputs": [],
      "stateMutability": "nonpayable",
      "type": "constructor"
    },
    {
      "anonymous": false,
      "inputs": [
        {
          "indexed": false,
          "internalType": "string",
          "name": "assetId",
          "type": "string"
        },
        {
          "indexed": false,
          "internalType": "string",
          "name": "finId",
          "type": "string"
        },
        {
          "indexed": false,
          "internalType": "uint256",
          "name": "quantity",
          "type": "uint256"
        },
        {
          "indexed": false,
          "internalType": "bytes16",
          "name": "operationId",
          "type": "bytes16"
        }
      ],
      "name": "Hold",
      "type": "event"
    },
    {
      "anonymous": false,
      "inputs": [
        {
          "indexed": false,
          "internalType": "string",
          "name": "assetId",
          "type": "string"
        },
        {
          "indexed": false,
          "internalType": "string",
          "name": "issuerFinId",
          "type": "string"
        },
        {
          "indexed": false,
          "internalType": "uint256",
          "name": "quantity",
          "type": "uint256"
        }
      ],
      "name": "Issue",
      "type": "event"
    },
    {
      "anonymous": false,
      "inputs": [
        {
          "indexed": false,
          "internalType": "string",
          "name": "assetId",
          "type": "string"
        },
        {
          "indexed": false,
          "internalType": "string",
          "name": "issuerFinId",
          "type": "string"
        },
        {
          "indexed": false,
          "internalType": "uint256",
          "name": "quantity",
          "type": "uint256"
        }
      ],
      "name": "Redeem",
      "type": "event"
    },
    {
      "anonymous": false,
      "inputs": [
        {
          "indexed": false,
          "internalType": "string",
          "name": "assetId",
          "type": "string"
        },
        {
          "indexed": false,
          "internalType": "string",
          "name": "sourceFinId",
          "type": "string"
        },
        {
          "indexed": false,
          "internalType": "string",
          "name": "destinationFinId",
          "type": "string"
        },
        {
          "indexed": false,
          "internalType": "uint256",
          "name": "quantity",
          "type": "uint256"
        },
        {
          "indexed": false,
          "internalType": "bytes16",
          "name": "operationId",
          "type": "bytes16"
        }
      ],
      "name": "Release",
      "type": "event"
    },
    {
      "anonymous": false,
      "inputs": [
        {
          "indexed": true,
          "internalType": "bytes32",
          "name": "role",
          "type": "bytes32"
        },
        {
          "indexed": true,
          "internalType": "bytes32",
          "name": "previousAdminRole",
          "type": "bytes32"
        },
        {
          "indexed": true,
          "internalType": "bytes32",
          "name": "newAdminRole",
          "type": "bytes32"
        }
      ],
      "name": "RoleAdminChanged",
      "type": "event"
    },
    {
      "anonymous": false,
      "inputs": [
        {
          "indexed": true,
          "internalType": "bytes32",
          "name": "role",
          "type": "bytes32"
        },
        {
          "indexed": true,
          "internalType": "address",
          "name": "account",
          "type": "address"
        },
        {
          "indexed": true,
          "internalType": "address",
          "name": "sender",
          "type": "address"
        }
      ],
      "name": "RoleGranted",
      "type": "event"
    },
    {
      "anonymous": false,
      "inputs": [
        {
          "indexed": true,
          "internalType": "bytes32",
          "name": "role",
          "type": "bytes32"
        },
        {
          "indexed": true,
          "internalType": "address",
          "name": "account",
          "type": "address"
        },
        {
          "indexed": true,
          "internalType": "address",
          "name": "sender",
          "type": "address"
        }
      ],
      "name": "RoleRevoked",
      "type": "event"
    },
    {
      "anonymous": false,
      "inputs": [
        {
          "indexed": false,
          "internalType": "string",
          "name": "assetId",
          "type": "string"
        },
        {
          "indexed": false,
          "internalType": "string",
          "name": "finId",
          "type": "string"
        },
        {
          "indexed": false,
          "internalType": "uint256",
          "name": "quantity",
          "type": "uint256"
        },
        {
          "indexed": false,
          "internalType": "bytes16",
          "name": "operationId",
          "type": "bytes16"
        }
      ],
      "name": "Rollback",
      "type": "event"
    },
    {
      "anonymous": false,
      "inputs": [
        {
          "indexed": false,
          "internalType": "string",
          "name": "assetId",
          "type": "string"
        },
        {
          "indexed": false,
          "internalType": "string",
          "name": "sourceFinId",
          "type": "string"
        },
        {
          "indexed": false,
          "internalType": "string",
          "name": "destinationFinId",
          "type": "string"
        },
        {
          "indexed": false,
          "internalType": "uint256",
          "name": "quantity",
          "type": "uint256"
        }
      ],
      "name": "Transfer",
      "type": "event"
    },
    {
      "inputs": [],
      "name": "DEFAULT_ADMIN_ROLE",
      "outputs": [
        {
          "internalType": "bytes32",
          "name": "",
          "type": "bytes32"
        }
      ],
      "stateMutability": "view",
      "type": "function"
    },
    {
      "inputs": [
        {
          "internalType": "bytes32",
          "name": "role",
          "type": "bytes32"
        }
      ],
      "name": "getRoleAdmin",
      "outputs": [
        {
          "internalType": "bytes32",
          "name": "",
          "type": "bytes32"
        }
      ],
      "stateMutability": "view",
      "type": "function"
    },
    {
      "inputs": [
        {
          "internalType": "bytes32",
          "name": "role",
          "type": "bytes32"
        },
        {
          "internalType": "uint256",
          "name": "index",
          "type": "uint256"
        }
      ],
      "name": "getRoleMember",
      "outputs": [
        {
          "internalType": "address",
          "name": "",
          "type": "address"
        }
      ],
      "stateMutability": "view",
      "type": "function"
    },
    {
      "inputs": [
        {
          "internalType": "bytes32",
          "name": "role",
          "type": "bytes32"
        }
      ],
      "name": "getRoleMemberCount",
      "outputs": [
        {
          "internalType": "uint256",
          "name": "",
          "type": "uint256"
        }
      ],
      "stateMutability": "view",
      "type": "function"
    },
    {
      "inputs": [
        {
          "internalType": "bytes32",
          "name": "role",
          "type": "bytes32"
        },
        {
          "internalType": "address",
          "name": "account",
          "type": "address"
        }
      ],
      "name": "grantRole",
      "outputs": [],
      "stateMutability": "nonpayable",
      "type": "function"
    },
    {
      "inputs": [
        {
          "internalType": "bytes32",
          "name": "role",
          "type": "bytes32"
        },
        {
          "internalType": "address",
          "name": "account",
          "type": "address"
        }
      ],
      "name": "hasRole",
      "outputs": [
        {
          "internalType": "bool",
          "name": "",
          "type": "bool"
        }
      ],
      "stateMutability": "view",
      "type": "function"
    },
    {
      "inputs": [
        {
          "internalType": "bytes32",
          "name": "role",
          "type": "bytes32"
        },
        {
          "internalType": "address",
          "name": "account",
          "type": "address"
        }
      ],
      "name": "renounceRole",
      "outputs": [],
      "stateMutability": "nonpayable",
      "type": "function"
    },
    {
      "inputs": [
        {
          "internalType": "bytes32",
          "name": "role",
          "type": "bytes32"
        },
        {
          "internalType": "address",
          "name": "account",
          "type": "address"
        }
      ],
      "name": "revokeRole",
      "outputs": [],
      "stateMutability": "nonpayable",
      "type": "function"
    },
    {
      "inputs": [
        {
          "internalType": "bytes4",
          "name": "interfaceId",
          "type": "bytes4"
        }
      ],
      "name": "supportsInterface",
      "outputs": [
        {
          "internalType": "bool",
          "name": "",
          "type": "bool"
        }
      ],
      "stateMutability": "view",
      "type": "function"
    },
    {
      "inputs": [
        {
          "internalType": "string",
          "name": "assetId",
          "type": "string"
        },
        {
          "internalType": "address",
          "name": "tokenAddress",
          "type": "address"
        }
      ],
      "name": "associateAsset",
      "outputs": [],
      "stateMutability": "nonpayable",
      "type": "function"
    },
    {
      "inputs": [
        {
          "internalType": "string",
          "name": "assetId",
          "type": "string"
        }
      ],
      "name": "removeAsset",
      "outputs": [],
      "stateMutability": "nonpayable",
      "type": "function"
    },
    {
      "inputs": [
        {
          "internalType": "string",
          "name": "assetId",
          "type": "string"
        }
      ],
      "name": "getAssetAddress",
      "outputs": [
        {
          "internalType": "address",
          "name": "",
          "type": "address"
        }
      ],
      "stateMutability": "view",
      "type": "function"
    },
    {
      "inputs": [
        {
          "internalType": "string",
          "name": "assetId",
          "type": "string"
        },
        {
          "internalType": "string",
          "name": "finId",
          "type": "string"
        }
      ],
      "name": "getBalance",
      "outputs": [
        {
          "internalType": "uint256",
          "name": "",
          "type": "uint256"
        }
      ],
      "stateMutability": "view",
      "type": "function"
    },
    {
      "inputs": [
        {
          "internalType": "string",
          "name": "assetId",
          "type": "string"
        },
        {
          "internalType": "string",
          "name": "issuerFinId",
          "type": "string"
        },
        {
          "internalType": "uint256",
          "name": "quantity",
          "type": "uint256"
        }
      ],
      "name": "issue",
      "outputs": [],
      "stateMutability": "nonpayable",
      "type": "function"
    },
    {
      "inputs": [
        {
          "internalType": "bytes32",
          "name": "nonce",
          "type": "bytes32"
        },
        {
          "internalType": "string",
          "name": "assetId",
          "type": "string"
        },
        {
          "internalType": "string",
          "name": "issuerFinId",
          "type": "string"
        },
        {
          "internalType": "uint256",
          "name": "quantity",
          "type": "uint256"
        },
        {
          "internalType": "bytes32",
          "name": "settlementHash",
          "type": "bytes32"
        },
        {
          "internalType": "bytes32",
          "name": "hash",
          "type": "bytes32"
        },
        {
          "internalType": "bytes",
          "name": "signature",
          "type": "bytes"
        }
      ],
      "name": "issueWithSignature",
      "outputs": [],
      "stateMutability": "nonpayable",
      "type": "function"
    },
    {
      "inputs": [
        {
          "internalType": "bytes32",
          "name": "nonce",
          "type": "bytes32"
        },
        {
          "internalType": "string",
          "name": "assetId",
          "type": "string"
        },
        {
          "internalType": "string",
          "name": "sourceFinId",
          "type": "string"
        },
        {
          "internalType": "string",
          "name": "destinationFinId",
          "type": "string"
        },
        {
          "internalType": "uint256",
          "name": "quantity",
          "type": "uint256"
        },
        {
          "internalType": "bytes32",
          "name": "settlementHash",
          "type": "bytes32"
        },
        {
          "internalType": "bytes32",
          "name": "hash",
          "type": "bytes32"
        },
        {
          "internalType": "bytes",
          "name": "signature",
          "type": "bytes"
        }
      ],
      "name": "transfer",
      "outputs": [],
      "stateMutability": "nonpayable",
      "type": "function"
    },
    {
      "inputs": [
        {
          "internalType": "bytes32",
          "name": "nonce",
          "type": "bytes32"
        },
        {
          "internalType": "string",
          "name": "assetId",
          "type": "string"
        },
        {
          "internalType": "string",
          "name": "account",
          "type": "string"
        },
        {
          "internalType": "uint256",
          "name": "quantity",
          "type": "uint256"
        },
        {
          "internalType": "bytes32",
          "name": "settlementHash",
          "type": "bytes32"
        },
        {
          "internalType": "bytes32",
          "name": "hash",
          "type": "bytes32"
        },
        {
          "internalType": "bytes",
          "name": "signature",
          "type": "bytes"
        }
      ],
      "name": "redeem",
      "outputs": [],
      "stateMutability": "nonpayable",
      "type": "function"
    },
    {
      "inputs": [
        {
          "internalType": "bytes16",
          "name": "operationId",
          "type": "bytes16"
        },
        {
          "internalType": "string",
          "name": "assetId",
          "type": "string"
        },
        {
          "internalType": "string",
          "name": "sourceFinId",
          "type": "string"
        },
        {
          "internalType": "string",
          "name": "destinationFinId",
          "type": "string"
        },
        {
          "internalType": "uint256",
          "name": "quantity",
          "type": "uint256"
        },
        {
          "internalType": "uint256",
          "name": "expiry",
          "type": "uint256"
        },
        {
          "internalType": "bytes32",
          "name": "assetHash",
          "type": "bytes32"
        },
        {
          "internalType": "bytes32",
          "name": "hash",
          "type": "bytes32"
        },
        {
          "internalType": "bytes",
          "name": "signature",
          "type": "bytes"
        }
      ],
      "name": "hold",
      "outputs": [],
      "stateMutability": "nonpayable",
      "type": "function"
    },
    {
      "inputs": [
        {
          "internalType": "bytes16",
          "name": "operationId",
          "type": "bytes16"
        }
      ],
      "name": "getLockInfo",
      "outputs": [
        {
          "components": [
            {
              "internalType": "string",
              "name": "assetId",
              "type": "string"
            },
            {
              "internalType": "uint256",
              "name": "amount",
              "type": "uint256"
            },
            {
              "internalType": "uint256",
              "name": "expiry",
              "type": "uint256"
            }
          ],
          "internalType": "struct IFinP2PEscrow.LockInfo",
          "name": "",
          "type": "tuple"
        }
      ],
      "stateMutability": "view",
      "type": "function"
    },
    {
      "inputs": [
        {
          "internalType": "bytes16",
          "name": "operationId",
          "type": "bytes16"
        },
        {
          "internalType": "string",
          "name": "destinationFinId",
          "type": "string"
        }
      ],
      "name": "release",
      "outputs": [],
      "stateMutability": "nonpayable",
      "type": "function"
    },
    {
      "inputs": [
        {
          "internalType": "bytes16",
          "name": "operationId",
          "type": "bytes16"
        }
      ],
      "name": "rollback",
      "outputs": [],
      "stateMutability": "nonpayable",
      "type": "function"
    }
  ],
  "bytecode": "0x60806040523480156200001157600080fd5b506200003e7f9c6e3ae929b539a99db03120eac7d9f862d68479b44f1eec05ab6036fcf568303362000070565b6200006a7fb4fe169956afd9fed897d060c8ff2d93eaef71b9f573dcbbaff3917c80c4a8433362000070565b620001d5565b6200007c828262000080565b5050565b620000978282620000c360201b6200219d1760201c565b6000828152600160209081526040909120620000be9183906200222162000163821b17901c565b505050565b6000828152602081815260408083206001600160a01b038516845290915290205460ff166200007c576000828152602081815260408083206001600160a01b03851684529091529020805460ff191660011790556200011f3390565b6001600160a01b0316816001600160a01b0316837f2f8788117e7eff1d82e926ec794901d17c78024a50270940304540a733656f0d60405160405180910390a45050565b60006200017a836001600160a01b03841662000183565b90505b92915050565b6000818152600183016020526040812054620001cc575081546001818101845560008481526020808220909301849055845484825282860190935260409020919091556200017d565b5060006200017d565b61405b80620001e56000396000f3fe608060405234801561001057600080fd5b50600436106101375760003560e01c80638fcef755116100b8578063a217fddf1161007c578063a217fddf146102b3578063c3aae85c146102bb578063ca15c873146102ce578063d547741f146102e1578063d6fbd5b4146102f4578063e656381b1461030757600080fd5b80638fcef755146102545780639010d07c1461026757806391d148541461027a578063927c682e1461028d578063a15676e1146102a057600080fd5b80636ac3d07b116100ff5780636ac3d07b146101dd5780636ffd36e7146101f05780637307ae55146102035780637338b1a41461022e578063759af9ec1461024157600080fd5b806301ffc9a71461013c5780630257a31914610164578063248a9ca3146101845780632f2ff15d146101b557806336568abe146101ca575b600080fd5b61014f61014a366004613227565b61031a565b60405190151581526020015b60405180910390f35b61017761017236600461326e565b610345565b60405161015b91906132e5565b6101a7610192366004613321565b60009081526020819052604090206001015490565b60405190815260200161015b565b6101c86101c3366004613351565b61048b565b005b6101c86101d8366004613351565b6104b5565b6101a76101eb366004613420565b610533565b6101c86101fe366004613484565b6106ac565b610216610211366004613569565b610bd5565b6040516001600160a01b03909116815260200161015b565b6101c861023c3660046135a6565b610cd7565b6101c861024f366004613569565b610eb3565b6101c8610262366004613613565b610fb4565b6102166102753660046136c2565b6111e5565b61014f610288366004613351565b611204565b6101c861029b36600461326e565b61122d565b6101c86102ae3660046136e4565b61165d565b6101a7600081565b6101c86102c93660046137b8565b6119c4565b6101a76102dc366004613321565b611b33565b6101c86102ef366004613351565b611b4a565b6101c8610302366004613613565b611b6f565b6101c86103153660046137fd565b611ecb565b60006001600160e01b03198216635a05180f60e01b148061033f575061033f82612236565b92915050565b61036960405180606001604052806060815260200160008152602001600081525090565b6103728261226b565b6103b85760405162461bcd60e51b815260206004820152601260248201527110dbdb9d1c9858dd081b9bdd08199bdd5b9960721b60448201526064015b60405180910390fd5b6001600160801b03198216600090815260036020526040908190208151606081019092528054909190819083906103ee90613841565b80601f016020809104026020016040519081016040528092919081815260200182805461041a90613841565b80156104675780601f1061043c57610100808354040283529160200191610467565b820191906000526020600020905b81548152906001019060200180831161044a57829003601f168201915b50505050508152602001826003015481526020018260040154815250915050919050565b6000828152602081905260409020600101546104a68161228d565b6104b0838361229a565b505050565b6001600160a01b03811633146105255760405162461bcd60e51b815260206004820152602f60248201527f416363657373436f6e74726f6c3a2063616e206f6e6c792072656e6f756e636560448201526e103937b632b9903337b91039b2b63360891b60648201526084016103af565b61052f82826122bc565b5050565b600061053e836122de565b61055a5760405162461bcd60e51b81526004016103af9061387b565b60006105658361231e565b9050600060028560405161057991906138a4565b90815260200160405180910390206040518060400160405290816000820180546105a290613841565b80601f01602080910402602001604051908101604052809291908181526020018280546105ce90613841565b801561061b5780601f106105f05761010080835404028352916020019161061b565b820191906000526020600020905b8154815290600101906020018083116105fe57829003601f168201915b5050509183525050600191909101546001600160a01b03908116602092830152908201516040516370a0823160e01b8152858316600482015292935016906370a0823190602401602060405180830381865afa15801561067f573d6000803e3d6000fd5b505050506040513d601f19601f820116820180604052508101906106a391906138c0565b95945050505050565b6106c4600080516020613fe683398151915233611204565b6107245760405162461bcd60e51b815260206004820152603d602482015260008051602061400683398151915260448201527f6f6e206d616e6167657220726f6c6520746f20686f6c6420617373657400000060648201526084016103af565b61073388888888888888612331565b61074f5760405162461bcd60e51b81526004016103af906138d9565b600061075a8861231e565b9050610767818484612402565b6107835760405162461bcd60e51b81526004016103af90613904565b4285116107e15760405162461bcd60e51b815260206004820152602660248201527f45787069726174696f6e2074696d65206973206265666f72652063757272656e604482015265742074696d6560d01b60648201526084016103af565b600086116108015760405162461bcd60e51b81526004016103af9061393b565b61080a896122de565b6108265760405162461bcd60e51b81526004016103af9061387b565b600060028a60405161083891906138a4565b908152602001604051809103902060405180604001604052908160008201805461086190613841565b80601f016020809104026020016040519081016040528092919081815260200182805461088d90613841565b80156108da5780601f106108af576101008083540402835291602001916108da565b820191906000526020600020905b8154815290600101906020018083116108bd57829003601f168201915b5050509183525050600191909101546001600160a01b03908116602092830152908201516040516370a0823160e01b815285831660048201529293506000929116906370a0823190602401602060405180830381865afa158015610942573d6000803e3d6000fd5b505050506040513d601f19601f8201168201806040525081019061096691906138c0565b9050878110156109b85760405162461bcd60e51b815260206004820152601e60248201527f4e6f742073756666696369656e742062616c616e636520746f20686f6c64000060448201526064016103af565b6109c18c61226b565b15610a0e5760405162461bcd60e51b815260206004820152601760248201527f436f6e747261637420616c72656164792065786973747300000000000000000060448201526064016103af565b60208201516040516323b872dd60e01b81526001600160a01b038581166004830152306024830152604482018b9052909116906323b872dd906064016020604051808303816000875af1158015610a69573d6000803e3d6000fd5b505050506040513d601f19601f82011682018060405250810190610a8d919061397d565b610acb5760405162461bcd60e51b815260206004820152600f60248201526e151c985b9cd9995c8819985a5b1959608a1b60448201526064016103af565b6040805160a0810182528c815260208082018d9052848101516001600160a01b031682840152606082018b9052608082018a90526001600160801b03198f16600090815260038252929092208151805192939192610b2c9284920190613158565b506020828101518051610b459260018501920190613158565b5060408201518160020160006101000a8154816001600160a01b0302191690836001600160a01b0316021790555060608201518160030155608082015181600401559050507fab28c0dd69e8b2dca8414e01853d94526baed6a38d15d2f5d9e46385f91d7de48b8b8a8f604051610bbf949392919061399f565b60405180910390a1505050505050505050505050565b6000610be0826122de565b610bfc5760405162461bcd60e51b81526004016103af9061387b565b6000600283604051610c0e91906138a4565b9081526020016040518091039020604051806040016040529081600082018054610c3790613841565b80601f0160208091040260200160405190810160405280929190818152602001828054610c6390613841565b8015610cb05780601f10610c8557610100808354040283529160200191610cb0565b820191906000526020600020905b815481529060010190602001808311610c9357829003601f168201915b5050509183525050600191909101546001600160a01b031660209182015201519392505050565b610cef600080516020613fe683398151915233611204565b610d0b5760405162461bcd60e51b81526004016103af906139e6565b610d14836122de565b610d305760405162461bcd60e51b81526004016103af9061387b565b6000610d3b8361231e565b90506000600285604051610d4f91906138a4565b9081526020016040518091039020604051806040016040529081600082018054610d7890613841565b80601f0160208091040260200160405190810160405280929190818152602001828054610da490613841565b8015610df15780601f10610dc657610100808354040283529160200191610df1565b820191906000526020600020905b815481529060010190602001808311610dd457829003601f168201915b5050509183525050600191909101546001600160a01b03908116602092830152908201516040516340c10f1960e01b815285831660048201526024810187905292935016906340c10f1990604401600060405180830381600087803b158015610e5957600080fd5b505af1158015610e6d573d6000803e3d6000fd5b505050507f6021ecf4cdcbc7953b418761a2bc12d64257db3802fd14731d35b714e2efe6d6858585604051610ea493929190613a31565b60405180910390a15050505050565b610edd7f9c6e3ae929b539a99db03120eac7d9f862d68479b44f1eec05ab6036fcf5683033611204565b610f4f5760405162461bcd60e51b815260206004820152603960248201527f46696e70327045524332303a206d7573742068617665206173736574206d616e60448201527f6167657220726f6c6520746f2072656d6f76652061737365740000000000000060648201526084016103af565b610f58816122de565b610f745760405162461bcd60e51b81526004016103af9061387b565b600281604051610f8491906138a4565b9081526040519081900360200190206000610f9f82826131dc565b5060010180546001600160a01b031916905550565b610fcc600080516020613fe683398151915233611204565b610fe85760405162461bcd60e51b81526004016103af906139e6565b610ff1866122de565b61100d5760405162461bcd60e51b81526004016103af9061387b565b61101b878787878787612499565b6110375760405162461bcd60e51b81526004016103af906138d9565b60006110428661231e565b905061104f818484612402565b61106b5760405162461bcd60e51b81526004016103af90613904565b600060028860405161107d91906138a4565b90815260200160405180910390206040518060400160405290816000820180546110a690613841565b80601f01602080910402602001604051908101604052809291908181526020018280546110d290613841565b801561111f5780601f106110f45761010080835404028352916020019161111f565b820191906000526020600020905b81548152906001019060200180831161110257829003601f168201915b5050509183525050600191909101546001600160a01b03908116602092830152908201516040516340c10f1960e01b81528583166004820152602481018a905292935016906340c10f1990604401600060405180830381600087803b15801561118757600080fd5b505af115801561119b573d6000803e3d6000fd5b505050507f6021ecf4cdcbc7953b418761a2bc12d64257db3802fd14731d35b714e2efe6d68888886040516111d293929190613a31565b60405180910390a1505050505050505050565b60008281526001602052604081206111fd9083612561565b9392505050565b6000918252602082815260408084206001600160a01b0393909316845291905290205460ff1690565b611245600080516020613fe683398151915233611204565b6112af5760405162461bcd60e51b8152602060048201526041602482015260008051602061400683398151915260448201527f6f6e206d616e6167657220726f6c6520746f20726f6c6c6261636b20617373656064820152601d60fa1b608482015260a4016103af565b6112b88161226b565b6113045760405162461bcd60e51b815260206004820152601860248201527f636f6e747261637420646f6573206e6f7420657869737473000000000000000060448201526064016103af565b6001600160801b0319811660009081526003602052604081206001810180549192916113b7919061133490613841565b80601f016020809104026020016040519081016040528092919081815260200182805461136090613841565b80156113ad5780601f10611382576101008083540402835291602001916113ad565b820191906000526020600020905b81548152906001019060200180831161139057829003601f168201915b505050505061231e565b9050336001600160a01b0382161461141c5760405162461bcd60e51b815260206004820152602260248201527f4f6e6c79206f776e6572206d617920756e686f6c642074686520636f6e74726160448201526118dd60f21b60648201526084016103af565b816004015442101561147f5760405162461bcd60e51b815260206004820152602660248201527f43757272656e742074696d65206973206265666f72652065787069726174696f6044820152656e2074696d6560d01b60648201526084016103af565b60028201546040516370a0823160e01b81523060048201526000916001600160a01b0316906370a0823190602401602060405180830381865afa1580156114ca573d6000803e3d6000fd5b505050506040513d601f19601f820116820180604052508101906114ee91906138c0565b9050826003015481101561153a5760405162461bcd60e51b8152602060048201526013602482015272139bc81d1bdad95b9cc81d1bc81d5b9a1bdb19606a1b60448201526064016103af565b600283015460038401546040516323b872dd60e01b81523060048201526001600160a01b03858116602483015260448201929092529116906323b872dd906064016020604051808303816000875af115801561159a573d6000803e3d6000fd5b505050506040513d601f19601f820116820180604052508101906115be919061397d565b5060038301546040517fec01d1debb5942577d66a188f1d46fcc8ffe3cd995bfbdac73112bf7e23b94d0916115fb91869160018301918990613b06565b60405180910390a16001600160801b0319841660009081526003602052604081209061162782826131dc565b6116356001830160006131dc565b506002810180546001600160a01b031916905560006003820181905560049091015550505050565b611675600080516020613fe683398151915233611204565b6116df5760405162461bcd60e51b8152602060048201526041602482015260008051602061400683398151915260448201527f6f6e206d616e6167657220726f6c6520746f207472616e7366657220617373656064820152601d60fa1b608482015260a4016103af565b6116e8876122de565b6117045760405162461bcd60e51b81526004016103af9061387b565b6117138888888888888861256d565b61172f5760405162461bcd60e51b81526004016103af906138d9565b600061173a8761231e565b905060006117478761231e565b9050611754828585612402565b6117705760405162461bcd60e51b81526004016103af90613904565b600060028a60405161178291906138a4565b90815260200160405180910390206040518060400160405290816000820180546117ab90613841565b80601f01602080910402602001604051908101604052809291908181526020018280546117d790613841565b80156118245780601f106117f957610100808354040283529160200191611824565b820191906000526020600020905b81548152906001019060200180831161180757829003601f168201915b5050509183525050600191909101546001600160a01b03908116602092830152908201516040516370a0823160e01b815286831660048201529293506000929116906370a0823190602401602060405180830381865afa15801561188c573d6000803e3d6000fd5b505050506040513d601f19601f820116820180604052508101906118b091906138c0565b90508781101561190d5760405162461bcd60e51b815260206004820152602260248201527f4e6f742073756666696369656e742062616c616e636520746f207472616e736660448201526132b960f11b60648201526084016103af565b60208201516040516323b872dd60e01b81526001600160a01b0386811660048301528581166024830152604482018b9052909116906323b872dd906064016020604051808303816000875af115801561196a573d6000803e3d6000fd5b505050506040513d601f19601f8201168201806040525081019061198e919061397d565b507f244628d5125a50434b46d8336b5718c2957c4df226e2644059f8b830cad300568b8b8b8b604051610bbf9493929190613b2b565b6119ee7f9c6e3ae929b539a99db03120eac7d9f862d68479b44f1eec05ab6036fcf5683033611204565b611a605760405162461bcd60e51b815260206004820152603c60248201527f46696e70327045524332303a206d7573742068617665206173736574206d616e60448201527f6167657220726f6c6520746f206173736f63696174652061737365740000000060648201526084016103af565b611a69826122de565b15611aad5760405162461bcd60e51b8152602060048201526014602482015273417373657420616c72656164792065786973747360601b60448201526064016103af565b6040518060400160405280838152602001826001600160a01b0316815250600283604051611adb91906138a4565b90815260200160405180910390206000820151816000019080519060200190611b05929190613158565b5060209190910151600190910180546001600160a01b0319166001600160a01b039092169190911790555050565b600081815260016020526040812061033f90612654565b600082815260208190526040902060010154611b658161228d565b6104b083836122bc565b611b87600080516020613fe683398151915233611204565b611be75760405162461bcd60e51b815260206004820152603f602482015260008051602061400683398151915260448201527f6f6e206d616e6167657220726f6c6520746f2072656465656d2061737365740060648201526084016103af565b611bf0866122de565b611c0c5760405162461bcd60e51b81526004016103af9061387b565b60008411611c2c5760405162461bcd60e51b81526004016103af9061393b565b611c3a87878787878761265e565b611c565760405162461bcd60e51b81526004016103af906138d9565b6000611c618661231e565b9050611c6e818484612402565b611c8a5760405162461bcd60e51b81526004016103af90613904565b6000600288604051611c9c91906138a4565b9081526020016040518091039020604051806040016040529081600082018054611cc590613841565b80601f0160208091040260200160405190810160405280929190818152602001828054611cf190613841565b8015611d3e5780601f10611d1357610100808354040283529160200191611d3e565b820191906000526020600020905b815481529060010190602001808311611d2157829003601f168201915b5050509183525050600191909101546001600160a01b03908116602092830152908201516040516370a0823160e01b815285831660048201529293506000929116906370a0823190602401602060405180830381865afa158015611da6573d6000803e3d6000fd5b505050506040513d601f19601f82011682018060405250810190611dca91906138c0565b905086811015611e1c5760405162461bcd60e51b815260206004820181905260248201527f4e6f742073756666696369656e742062616c616e636520746f2072656465656d60448201526064016103af565b602082015160405163079cc67960e41b81526001600160a01b038581166004830152602482018a9052909116906379cc679090604401600060405180830381600087803b158015611e6c57600080fd5b505af1158015611e80573d6000803e3d6000fd5b505050507fcc9cd5978325ffba6ead9037705a4d1b27169544a26343666633414295eee9c8898989604051611eb793929190613a31565b60405180910390a150505050505050505050565b611ee3600080516020613fe683398151915233611204565b611f45576040805162461bcd60e51b815260206004820152602481019190915260008051602061400683398151915260448201527f6f6e206d616e6167657220726f6c6520746f2072656c6561736520617373657460648201526084016103af565b611f4e8261226b565b611f9a5760405162461bcd60e51b815260206004820152601860248201527f436f6e747261637420646f6573206e6f7420657869737473000000000000000060448201526064016103af565b6001600160801b03198216600090815260036020526040808220600281015491516370a0823160e01b81523060048201529092916001600160a01b0316906370a0823190602401602060405180830381865afa158015611ffe573d6000803e3d6000fd5b505050506040513d601f19601f8201168201806040525081019061202291906138c0565b9050816003015481101561206f5760405162461bcd60e51b81526020600482015260146024820152734e6f20746f6b656e7320746f2072656c6561736560601b60448201526064016103af565b600061207a8461231e565b6002840154600385015460405163a9059cbb60e01b81526001600160a01b0380851660048301526024820192909252929350169063a9059cbb906044016020604051808303816000875af11580156120d6573d6000803e3d6000fd5b505050506040513d601f19601f820116820180604052508101906120fa919061397d565b5060038301546040517fca4191f18707e73dc5e566c5ecaa1d1ab5a6ce38486d87a949b930b5e574da9d9161213a91869160018301918991908b90613b76565b60405180910390a16001600160801b0319851660009081526003602052604081209061216682826131dc565b6121746001830160006131dc565b506002810180546001600160a01b03191690556000600382018190556004909101555050505050565b6121a78282611204565b61052f576000828152602081815260408083206001600160a01b03851684529091529020805460ff191660011790556121dd3390565b6001600160a01b0316816001600160a01b0316837f2f8788117e7eff1d82e926ec794901d17c78024a50270940304540a733656f0d60405160405180910390a45050565b60006111fd836001600160a01b0384166126c9565b60006001600160e01b03198216637965db0b60e01b148061033f57506301ffc9a760e01b6001600160e01b031983161461033f565b6001600160801b03191660009081526003602081905260409091200154151590565b6122978133612718565b50565b6122a4828261219d565b60008281526001602052604090206104b09082612221565b6122c68282612771565b60008281526001602052604090206104b090826127d6565b6000806001600160a01b03166002836040516122fa91906138a4565b908152604051908190036020019020600101546001600160a01b0316141592915050565b600061033f61232c836127eb565b612914565b60008060405180604001604052806004815260200163199a585d60e21b8152508960405180604001604052806005815260200164199a5b925960da1b8152508a60405180604001604052806005815260200164199a5b925960da1b8152508b6123998c612994565b6123a28c612994565b6040516020016123b9989796959493929190613bd2565b60408051808303601f190181528282528051602091820120818401889052838301528151808403830181526060909301909152815191012083149150505b979650505050505050565b6020810151604082015160009190601b5b601c8160ff161161248c5760008061242d88848787612a27565b9092509050600081600481111561244657612446613c77565b1480156124645750886001600160a01b0316826001600160a01b0316145b15612477576001955050505050506111fd565b5050808061248490613ca3565b915050612413565b5060009695505050505050565b6000808760405180604001604052806005815260200164697373756560d81b81525060405180604001604052806006815260200165066696e7032760d41b8152508960405180604001604052806005815260200164199a5b925960da1b8152508a6125038b612994565b6040516020016125199796959493929190613cc2565b60408051808303601f19018152828252805160209182012081840152828201969096528051808303820181526060909201905280519401939093209091149695505050505050565b60006111fd8383612aeb565b60008088604051806040016040528060088152602001673a3930b739b332b960c11b81525060405180604001604052806006815260200165066696e7032760d41b8152508a60405180604001604052806005815260200164199a5b925960da1b8152508b60405180604001604052806005815260200164199a5b925960da1b8152508c6125f98d612994565b60405160200161261199989796959493929190613d4e565b60408051601f1981840301815282825280516020918201208184015282820187905281518084038301815260609093019091528151910120831491506123f79050565b600061033f825490565b600080876040518060400160405280600681526020016572656465656d60d01b81525060405180604001604052806006815260200165066696e7032760d41b8152508960405180604001604052806005815260200164199a5b925960da1b8152508a6125038b612994565b60008181526001830160205260408120546127105750815460018181018455600084815260208082209093018490558454848252828601909352604090209190915561033f565b50600061033f565b6127228282611204565b61052f5761272f81612b15565b61273a836020612b27565b60405160200161274b929190613e04565b60408051601f198184030181529082905262461bcd60e51b82526103af91600401613e79565b61277b8282611204565b1561052f576000828152602081815260408083206001600160a01b0385168085529252808320805460ff1916905551339285917ff6391f5c32d9c69d2a47ea670b442974b53935d1edc7fd64eb21e047a839171b9190a45050565b60006111fd836001600160a01b038416612cc3565b805160609082906127fe90600290613ea2565b1561280857600080fd5b6000600282516128189190613eb6565b67ffffffffffffffff8111156128305761283061337d565b6040519080825280601f01601f19166020018201604052801561285a576020820181803683370190505b50905060005b6002835161286e9190613eb6565b81101561290c576128ac83612884836002613eca565b61288f906001613ee9565b8151811061289f5761289f613f01565b016020015160f81c612db6565b6128bb8461288f846002613eca565b6128c6906010613f17565b6128d09190613f40565b60f81b8282815181106128e5576128e5613f01565b60200101906001600160f81b031916908160001a90535061290581613f65565b9050612860565b509392505050565b6000808260008151811061292a5761292a613f01565b0160200151602184015160f89190911c9150600061295283838360076401000003d019612e9a565b905060008282604051602001612972929190918252602082015260400190565b60408051601f1981840301815291905280516020909101209695505050505050565b606060006129a183612fb7565b600101905060008167ffffffffffffffff8111156129c1576129c161337d565b6040519080825280601f01601f1916602001820160405280156129eb576020820181803683370190505b5090508181016020015b600019016f181899199a1a9b1b9c1cb0b131b232b360811b600a86061a8153600a85049450846129f557509392505050565b6000807f7fffffffffffffffffffffffffffffff5d576e7357a4501ddfe92f46681b20a0831115612a5e5750600090506003612ae2565b6040805160008082526020820180845289905260ff881692820192909252606081018690526080810185905260019060a0016020604051602081039080840390855afa158015612ab2573d6000803e3d6000fd5b5050604051601f1901519150506001600160a01b038116612adb57600060019250925050612ae2565b9150600090505b94509492505050565b6000826000018281548110612b0257612b02613f01565b9060005260206000200154905092915050565b606061033f6001600160a01b03831660145b60606000612b36836002613eca565b612b41906002613ee9565b67ffffffffffffffff811115612b5957612b5961337d565b6040519080825280601f01601f191660200182016040528015612b83576020820181803683370190505b509050600360fc1b81600081518110612b9e57612b9e613f01565b60200101906001600160f81b031916908160001a905350600f60fb1b81600181518110612bcd57612bcd613f01565b60200101906001600160f81b031916908160001a9053506000612bf1846002613eca565b612bfc906001613ee9565b90505b6001811115612c74576f181899199a1a9b1b9c1cb0b131b232b360811b85600f1660108110612c3057612c30613f01565b1a60f81b828281518110612c4657612c46613f01565b60200101906001600160f81b031916908160001a90535060049490941c93612c6d81613f7e565b9050612bff565b5083156111fd5760405162461bcd60e51b815260206004820181905260248201527f537472696e67733a20686578206c656e67746820696e73756666696369656e7460448201526064016103af565b60008181526001830160205260408120548015612dac576000612ce7600183613f95565b8554909150600090612cfb90600190613f95565b9050818114612d60576000866000018281548110612d1b57612d1b613f01565b9060005260206000200154905080876000018481548110612d3e57612d3e613f01565b6000918252602080832090910192909255918252600188019052604090208390555b8554869080612d7157612d71613fac565b60019003818190600052602060002001600090559055856001016000868152602001908152602001600020600090556001935050505061033f565b600091505061033f565b6000600360fc1b60f883901b6001600160f81b03191610801590612dec5750603960f81b60f883901b6001600160f81b03191611155b15612dfc5761033f603083613fc2565b606160f81b60f883901b6001600160f81b03191610801590612e305750603360f91b60f883901b6001600160f81b03191611155b15612e4c576061612e4283600a613f40565b61033f9190613fc2565b604160f81b60f883901b6001600160f81b03191610801590612e805750602360f91b60f883901b6001600160f81b03191611155b15612e92576041612e4283600a613f40565b506000919050565b60008560ff1660021480612eb157508560ff166003145b612f085760405162461bcd60e51b815260206004820152602260248201527f496e76616c696420636f6d7072657373656420454320706f696e7420707265666044820152610d2f60f31b60648201526084016103af565b60008280612f1857612f18613e8c565b8380612f2657612f26613e8c565b858580612f3557612f35613e8c565b888a09088480612f4757612f47613e8c565b8580612f5557612f55613e8c565b898a098909089050612f7e816004612f6e866001613ee9565b612f789190613eb6565b8561308f565b90506002612f8f60ff891683613ee9565b612f999190613ea2565b15612fad57612fa88184613f95565b6123f7565b9695505050505050565b60008072184f03e93ff9f4daa797ed6e38ed64bf6a1f0160401b8310612ff65772184f03e93ff9f4daa797ed6e38ed64bf6a1f0160401b830492506040015b6d04ee2d6d415b85acef81000000008310613022576d04ee2d6d415b85acef8100000000830492506020015b662386f26fc10000831061304057662386f26fc10000830492506010015b6305f5e1008310613058576305f5e100830492506008015b612710831061306c57612710830492506004015b6064831061307e576064830492506002015b600a831061033f5760010192915050565b6000816000036130d35760405162461bcd60e51b815260206004820152600f60248201526e4d6f64756c7573206973207a65726f60881b60448201526064016103af565b836000036130e3575060006111fd565b826000036130f3575060016111fd565b6001600160ff1b5b801561314f57838186161515870a85848509099150836002820486161515870a85848509099150836004820486161515870a85848509099150836008820486161515870a85848509099150601090046130fb565b50949350505050565b82805461316490613841565b90600052602060002090601f01602090048101928261318657600085556131cc565b82601f1061319f57805160ff19168380011785556131cc565b828001600101855582156131cc579182015b828111156131cc5782518255916020019190600101906131b1565b506131d8929150613212565b5090565b5080546131e890613841565b6000825580601f106131f8575050565b601f01602090049060005260206000209081019061229791905b5b808211156131d85760008155600101613213565b60006020828403121561323957600080fd5b81356001600160e01b0319811681146111fd57600080fd5b80356001600160801b03198116811461326957600080fd5b919050565b60006020828403121561328057600080fd5b6111fd82613251565b60005b838110156132a457818101518382015260200161328c565b838111156132b3576000848401525b50505050565b600081518084526132d1816020860160208601613289565b601f01601f19169290920160200192915050565b60208152600082516060602084015261330160808401826132b9565b905060208401516040840152604084015160608401528091505092915050565b60006020828403121561333357600080fd5b5035919050565b80356001600160a01b038116811461326957600080fd5b6000806040838503121561336457600080fd5b823591506133746020840161333a565b90509250929050565b634e487b7160e01b600052604160045260246000fd5b600082601f8301126133a457600080fd5b813567ffffffffffffffff808211156133bf576133bf61337d565b604051601f8301601f19908116603f011681019082821181831017156133e7576133e761337d565b8160405283815286602085880101111561340057600080fd5b836020870160208301376000602085830101528094505050505092915050565b6000806040838503121561343357600080fd5b823567ffffffffffffffff8082111561344b57600080fd5b61345786838701613393565b9350602085013591508082111561346d57600080fd5b5061347a85828601613393565b9150509250929050565b60008060008060008060008060006101208a8c0312156134a357600080fd5b6134ac8a613251565b985060208a013567ffffffffffffffff808211156134c957600080fd5b6134d58d838e01613393565b995060408c01359150808211156134eb57600080fd5b6134f78d838e01613393565b985060608c013591508082111561350d57600080fd5b6135198d838e01613393565b975060808c0135965060a08c0135955060c08c0135945060e08c013593506101008c013591508082111561354c57600080fd5b506135598c828d01613393565b9150509295985092959850929598565b60006020828403121561357b57600080fd5b813567ffffffffffffffff81111561359257600080fd5b61359e84828501613393565b949350505050565b6000806000606084860312156135bb57600080fd5b833567ffffffffffffffff808211156135d357600080fd5b6135df87838801613393565b945060208601359150808211156135f557600080fd5b5061360286828701613393565b925050604084013590509250925092565b600080600080600080600060e0888a03121561362e57600080fd5b87359650602088013567ffffffffffffffff8082111561364d57600080fd5b6136598b838c01613393565b975060408a013591508082111561366f57600080fd5b61367b8b838c01613393565b965060608a0135955060808a0135945060a08a0135935060c08a01359150808211156136a657600080fd5b506136b38a828b01613393565b91505092959891949750929550565b600080604083850312156136d557600080fd5b50508035926020909101359150565b600080600080600080600080610100898b03121561370157600080fd5b88359750602089013567ffffffffffffffff8082111561372057600080fd5b61372c8c838d01613393565b985060408b013591508082111561374257600080fd5b61374e8c838d01613393565b975060608b013591508082111561376457600080fd5b6137708c838d01613393565b965060808b0135955060a08b0135945060c08b0135935060e08b013591508082111561379b57600080fd5b506137a88b828c01613393565b9150509295985092959890939650565b600080604083850312156137cb57600080fd5b823567ffffffffffffffff8111156137e257600080fd5b6137ee85828601613393565b9250506133746020840161333a565b6000806040838503121561381057600080fd5b61381983613251565b9150602083013567ffffffffffffffff81111561383557600080fd5b61347a85828601613393565b600181811c9082168061385557607f821691505b60208210810361387557634e487b7160e01b600052602260045260246000fd5b50919050565b6020808252600f908201526e105cdcd95d081b9bdd08199bdd5b99608a1b604082015260600190565b600082516138b6818460208701613289565b9190910192915050565b6000602082840312156138d257600080fd5b5051919050565b60208082526011908201527012185cda081a5cc81b9bdd081d985b1a59607a1b604082015260600190565b60208082526019908201527f5369676e6174757265206973206e6f7420766572696669656400000000000000604082015260600190565b60208082526022908201527f416d6f756e742073686f756c642062652067726561746572207468616e207a65604082015261726f60f01b606082015260800190565b60006020828403121561398f57600080fd5b815180151581146111fd57600080fd5b6080815260006139b260808301876132b9565b82810360208401526139c481876132b9565b9150508360408301526001600160801b03198316606083015295945050505050565b6020808252603e9082015260008051602061400683398151915260408201527f6f6e206d616e6167657220726f6c6520746f2069737375652061737365740000606082015260800190565b606081526000613a4460608301866132b9565b8281036020840152613a5681866132b9565b915050826040830152949350505050565b8054600090600181811c9080831680613a8157607f831692505b60208084108203613aa257634e487b7160e01b600052602260045260246000fd5b83885260208801828015613abd5760018114613ace57613af9565b60ff19871682528282019750613af9565b60008981526020902060005b87811015613af357815484820152908601908401613ada565b83019850505b5050505050505092915050565b608081526000613b196080830187613a67565b82810360208401526139c48187613a67565b608081526000613b3e60808301876132b9565b8281036020840152613b5081876132b9565b90508281036040840152613b6481866132b9565b91505082606083015295945050505050565b60a081526000613b8960a0830188613a67565b8281036020840152613b9b8188613a67565b90508281036040840152613baf81876132b9565b9150508360608301526001600160801b0319831660808301529695505050505050565b600089516020613be58285838f01613289565b8a5191840191613bf88184848f01613289565b8a51920191613c0a8184848e01613289565b8951920191613c1c8184848d01613289565b8851920191613c2e8184848c01613289565b8751920191613c408184848b01613289565b8651920191613c528184848a01613289565b8551920191613c648184848901613289565b919091019b9a5050505050505050505050565b634e487b7160e01b600052602160045260246000fd5b634e487b7160e01b600052601160045260246000fd5b600060ff821660ff8103613cb957613cb9613c8d565b60010192915050565b878152600060208851613cda81838601848d01613289565b885190840190613cef81848401858d01613289565b8851910190613d0381848401858c01613289565b8751910190613d1781848401858b01613289565b8651910190613d2b81848401858a01613289565b8551910190613d3f81848401858901613289565b01019998505050505050505050565b898152600060208a51613d6681838601848f01613289565b8a5190840190613d7b81848401858f01613289565b8a51910190613d8f81848401858e01613289565b8951910190613da381848401858d01613289565b8851910190613db781848401858c01613289565b8751910190613dcb81848401858b01613289565b8651910190613ddf81848401858a01613289565b8551910190613df381848401858901613289565b01019b9a5050505050505050505050565b7f416363657373436f6e74726f6c3a206163636f756e7420000000000000000000815260008351613e3c816017850160208801613289565b7001034b99036b4b9b9b4b733903937b6329607d1b6017918401918201528351613e6d816028840160208801613289565b01602801949350505050565b6020815260006111fd60208301846132b9565b634e487b7160e01b600052601260045260246000fd5b600082613eb157613eb1613e8c565b500690565b600082613ec557613ec5613e8c565b500490565b6000816000190483118215151615613ee457613ee4613c8d565b500290565b60008219821115613efc57613efc613c8d565b500190565b634e487b7160e01b600052603260045260246000fd5b600060ff821660ff84168160ff0481118215151615613f3857613f38613c8d565b029392505050565b600060ff821660ff84168060ff03821115613f5d57613f5d613c8d565b019392505050565b600060018201613f7757613f77613c8d565b5060010190565b600081613f8d57613f8d613c8d565b506000190190565b600082821015613fa757613fa7613c8d565b500390565b634e487b7160e01b600052603160045260246000fd5b600060ff821660ff841680821015613fdc57613fdc613c8d565b9003939250505056feb4fe169956afd9fed897d060c8ff2d93eaef71b9f573dcbbaff3917c80c4a84346696e70327045524332303a206d7573742068617665207472616e7361637469a264697066735822122037b1acd9d980e9cc925b290c738d4898fc2455d3abae7cb3cfb5d47cce9380a864736f6c634300080e0033",
  "immutableReferences": {},
  "source": "// SPDX-License-Identifier: MIT\n\npragma solidity ^0.8.0;\n\nimport \"@openzeppelin/contracts/token/ERC20/IERC20.sol\";\nimport \"@openzeppelin/contracts/access/AccessControlEnumerable.sol\";\nimport \"../ERC20WithOperator.sol\";\nimport \"../../../utils/finp2p/IFinP2PAsset.sol\";\nimport \"../../../utils/finp2p/IFinP2PEscrow.sol\";\nimport \"../../../utils/finp2p/Signature.sol\";\nimport \"../../../utils/finp2p/Bytes.sol\";\n\n/**\n * @dev A token holder contract that will allow a beneficiary to extract the\n * tokens after a given release time.\n *\n * Useful for simple vesting schedules like \"advisors get all of their tokens\n * after 1 year\".\n */\ncontract Finp2pERC20 is IFinP2PAsset, IFinP2PEscrow, AccessControlEnumerable {\n\n    bytes32 private constant ASSET_MANAGER = keccak256(\"ASSET_MANAGER\");\n    bytes32 private constant TRANSACTION_MANAGER = keccak256(\"TRANSACTION_MANAGER\");\n\n    struct Asset {\n        string id;\n        address tokenAddress;\n    }\n\n    struct Lock {\n        string assetId;\n        string finId;\n        address token;\n        uint256 amount;\n        uint256 expiry;\n    }\n\n    mapping(string => Asset) assets;\n    mapping(bytes16 => Lock) private locks;\n\n    constructor() {\n        _setupRole(ASSET_MANAGER, _msgSender());\n        _setupRole(TRANSACTION_MANAGER, _msgSender());\n    }\n\n    function associateAsset(string memory assetId, address tokenAddress) public override {\n        require(hasRole(ASSET_MANAGER, _msgSender()), \"Finp2pERC20: must have asset manager role to associate asset\");\n        require(!haveAsset(assetId), \"Asset already exists\");\n        assets[assetId] = Asset(assetId, tokenAddress);\n    }\n\n    function removeAsset(string memory assetId) public override {\n        require(hasRole(ASSET_MANAGER, _msgSender()), \"Finp2pERC20: must have asset manager role to remove asset\");\n        require(haveAsset(assetId), \"Asset not found\");\n        delete assets[assetId];\n    }\n\n    function getAssetAddress(string memory assetId) public override view returns (address) {\n        require(haveAsset(assetId), \"Asset not found\");\n        Asset memory asset = assets[assetId];\n        return asset.tokenAddress;\n    }\n\n    function getBalance(\n        string memory assetId,\n        string memory finId\n    ) public override view returns (uint256) {\n        require(haveAsset(assetId), \"Asset not found\");\n        address addr = Bytes.finIdToAddress(finId);\n        Asset memory asset = assets[assetId];\n        return IERC20(asset.tokenAddress).balanceOf(addr);\n    }\n\n    function issue(\n        string memory assetId,\n        string memory issuerFinId,\n        uint256 quantity\n    ) public override virtual {\n        require(hasRole(TRANSACTION_MANAGER, _msgSender()), \"Finp2pERC20: must have transaction manager role to issue asset\");\n        require(haveAsset(assetId), \"Asset not found\");\n\n        address issuer = Bytes.finIdToAddress(issuerFinId);\n\n        Asset memory asset = assets[assetId];\n        ERC20WithOperator(asset.tokenAddress).mint(issuer, quantity);\n\n        emit Issue(assetId, issuerFinId, quantity);\n    }\n\n    function issueWithSignature(\n        bytes32 nonce,\n        string memory assetId,\n        string memory issuerFinId,\n        uint256 quantity,\n        bytes32 settlementHash,\n        bytes32 hash,\n        bytes memory signature\n    ) public override virtual {\n        require(hasRole(TRANSACTION_MANAGER, _msgSender()), \"Finp2pERC20: must have transaction manager role to issue asset\");\n        require(haveAsset(assetId), \"Asset not found\");\n\n        require(Signature.isIssueHashValid(\n            nonce,\n            assetId,\n            issuerFinId,\n            quantity,\n            settlementHash,\n            hash\n        ), \"Hash is not valid\");\n\n        address issuer = Bytes.finIdToAddress(issuerFinId);\n\n        require(Signature.verify(\n            issuer,\n            hash,\n            signature\n        ),\n            \"Signature is not verified\");\n\n        Asset memory asset = assets[assetId];\n        ERC20WithOperator(asset.tokenAddress).mint(issuer, quantity);\n\n        emit Issue(assetId, issuerFinId, quantity);\n    }\n\n    function transfer(\n        bytes32 nonce,\n        string memory assetId,\n        string memory sourceFinId,\n        string memory destinationFinId,\n        uint256 quantity,\n        bytes32 settlementHash,\n        bytes32 hash,\n        bytes memory signature\n    ) public override virtual {\n        require(hasRole(TRANSACTION_MANAGER, _msgSender()), \"Finp2pERC20: must have transaction manager role to transfer asset\");\n        require(haveAsset(assetId), \"Asset not found\");\n\n        require(Signature.isTransferHashValid(\n                nonce,\n                assetId,\n                sourceFinId,\n                destinationFinId,\n                quantity,\n                settlementHash,\n                hash\n            ), \"Hash is not valid\");\n\n        address source = Bytes.finIdToAddress(sourceFinId);\n        address destination = Bytes.finIdToAddress(destinationFinId);\n\n        require(Signature.verify(\n                source,\n                hash,\n                signature\n            ),\n            \"Signature is not verified\");\n\n        Asset memory asset = assets[assetId];\n        uint256 balance = IERC20(asset.tokenAddress).balanceOf(source);\n        require(balance >= quantity, \"Not sufficient balance to transfer\");\n\n        IERC20(asset.tokenAddress).transferFrom(source, destination, quantity);\n\n        emit Transfer(assetId, sourceFinId, destinationFinId, quantity);\n    }\n\n    function redeem(\n        bytes32 nonce,\n        string memory assetId,\n        string memory account,\n        uint256 quantity,\n        bytes32 settlementHash,\n        bytes32 hash,\n        bytes memory signature\n    ) public override virtual {\n        require(hasRole(TRANSACTION_MANAGER, _msgSender()), \"Finp2pERC20: must have transaction manager role to redeem asset\");\n        require(haveAsset(assetId), \"Asset not found\");\n        require(quantity > 0, \"Amount should be greater than zero\");\n\n        require(Signature.isRedeemHashValid(\n                nonce,\n                assetId,\n            account,\n                quantity,\n                settlementHash,\n                hash\n            ), \"Hash is not valid\");\n\n        address issuer = Bytes.finIdToAddress(account);\n\n        require(Signature.verify(\n                issuer,\n                hash,\n                signature\n            ),\n            \"Signature is not verified\");\n\n        Asset memory asset = assets[assetId];\n        uint256 balance = IERC20(asset.tokenAddress).balanceOf(issuer);\n        require(balance >= quantity, \"Not sufficient balance to redeem\");\n\n        ERC20WithOperator(asset.tokenAddress).burnFrom(issuer, quantity);\n\n        emit Redeem(assetId, account, quantity);\n    }\n\n    function hold(\n        bytes16 operationId,\n        string memory assetId,\n        string memory sourceFinId,\n        string memory destinationFinId,\n        uint256 quantity,\n        uint256 expiry,\n        bytes32 assetHash,\n        bytes32 hash,\n        bytes memory signature\n    ) public override virtual {\n        require(hasRole(TRANSACTION_MANAGER, _msgSender()), \"Finp2pERC20: must have transaction manager role to hold asset\");\n\n        require(Signature.isHoldHashValid(\n                assetId,\n                sourceFinId,\n                destinationFinId,\n                quantity,\n                expiry,\n                assetHash,\n                hash\n            ), \"Hash is not valid\");\n\n        address owner = Bytes.finIdToAddress(sourceFinId);\n\n        require(Signature.verify(\n                owner,\n                hash,\n                signature\n            ),\n            \"Signature is not verified\");\n\n        require(expiry > block.timestamp, \"Expiration time is before current time\");\n        require(quantity > 0, \"Amount should be greater than zero\");\n        require(haveAsset(assetId), \"Asset not found\");\n        Asset memory asset = assets[assetId];\n\n        uint256 balance = IERC20(asset.tokenAddress).balanceOf(owner);\n        require(balance >= quantity, \"Not sufficient balance to hold\");\n\n        if (haveContract(operationId))\n            revert(\"Contract already exists\");\n\n        if (!IERC20(asset.tokenAddress).transferFrom(owner, address(this), quantity))\n            revert(\"Transfer failed\");\n\n        locks[operationId] = Lock(\n            assetId,\n            sourceFinId,\n            asset.tokenAddress,\n            quantity,\n            expiry\n        );\n\n        emit Hold(assetId, sourceFinId, quantity, operationId);\n    }\n\n    function getLockInfo(bytes16 operationId) public override view returns (LockInfo memory) {\n        require(haveContract(operationId), \"Contract not found\");\n        Lock storage l = locks[operationId];\n        return LockInfo(l.assetId, l.amount, l.expiry);\n    }\n\n    function release(\n        bytes16 operationId,\n        string memory destinationFinId\n    ) public override virtual {\n        require(hasRole(TRANSACTION_MANAGER, _msgSender()), \"Finp2pERC20: must have transaction manager role to release asset\");\n\n        require(haveContract(operationId), \"Contract does not exists\");\n\n        Lock storage lock = locks[operationId];\n\n        uint256 balance = IERC20(lock.token).balanceOf(address(this));\n        require(balance >= lock.amount, \"No tokens to release\");\n\n        address destination = Bytes.finIdToAddress(destinationFinId);\n\n        IERC20(lock.token).transfer(destination, lock.amount);\n\n        emit Release(lock.assetId, lock.finId, destinationFinId, lock.amount, operationId);\n\n        delete locks[operationId];\n    }\n\n    function rollback(\n        bytes16 operationId\n    ) public override virtual {\n        require(hasRole(TRANSACTION_MANAGER, _msgSender()), \"Finp2pERC20: must have transaction manager role to rollback asset\");\n\n        require(haveContract(operationId), \"contract does not exists\");\n        Lock storage lock = locks[operationId];\n        address owner = Bytes.finIdToAddress(lock.finId);\n        require(msg.sender == owner, \"Only owner may unhold the contract\");\n\n        require(block.timestamp >= lock.expiry, \"Current time is before expiration time\");\n\n        uint256 totalBalance = IERC20(lock.token).balanceOf(address(this));\n        require(totalBalance >= lock.amount, \"No tokens to unhold\");\n\n        IERC20(lock.token).transferFrom(address(this), owner, lock.amount);\n\n        emit Rollback(lock.assetId, lock.finId, lock.amount, operationId);\n\n        delete locks[operationId];\n    }\n\n\n    function haveAsset(string memory assetId) internal view returns (bool exists) {\n        exists = (assets[assetId].tokenAddress != address(0));\n    }\n\n    function haveContract(bytes16 operationId) internal view returns (bool exists) {\n        exists = (locks[operationId].amount > 0);\n    }\n\n}",
  "sourcePath": "/home/ancalled/WebstormProjects/nodejs_ledger_adapter_skeleton/contracts/token/ERC20/utils/Finp2pERC20.sol",
  "compiler": {
    "name": "solc",
    "version": "0.8.14+commit.80d49f37.Emscripten.clang"
  },
  "schemaVersion": "3.4.7",
  "updatedAt": "2024-02-20T07:11:36.433Z",
  "devdoc": {
    "details": "A token holder contract that will allow a beneficiary to extract the tokens after a given release time. Useful for simple vesting schedules like \"advisors get all of their tokens after 1 year\".",
    "kind": "dev",
    "methods": {
      "getRoleAdmin(bytes32)": {
        "details": "Returns the admin role that controls `role`. See {grantRole} and {revokeRole}. To change a role's admin, use {_setRoleAdmin}."
      },
      "getRoleMember(bytes32,uint256)": {
        "details": "Returns one of the accounts that have `role`. `index` must be a value between 0 and {getRoleMemberCount}, non-inclusive. Role bearers are not sorted in any particular way, and their ordering may change at any point. WARNING: When using {getRoleMember} and {getRoleMemberCount}, make sure you perform all queries on the same block. See the following https://forum.openzeppelin.com/t/iterating-over-elements-on-enumerableset-in-openzeppelin-contracts/2296[forum post] for more information."
      },
      "getRoleMemberCount(bytes32)": {
        "details": "Returns the number of accounts that have `role`. Can be used together with {getRoleMember} to enumerate all bearers of a role."
      },
      "grantRole(bytes32,address)": {
        "details": "Grants `role` to `account`. If `account` had not been already granted `role`, emits a {RoleGranted} event. Requirements: - the caller must have ``role``'s admin role. May emit a {RoleGranted} event."
      },
      "hasRole(bytes32,address)": {
        "details": "Returns `true` if `account` has been granted `role`."
      },
      "renounceRole(bytes32,address)": {
        "details": "Revokes `role` from the calling account. Roles are often managed via {grantRole} and {revokeRole}: this function's purpose is to provide a mechanism for accounts to lose their privileges if they are compromised (such as when a trusted device is misplaced). If the calling account had been revoked `role`, emits a {RoleRevoked} event. Requirements: - the caller must be `account`. May emit a {RoleRevoked} event."
      },
      "revokeRole(bytes32,address)": {
        "details": "Revokes `role` from `account`. If `account` had been granted `role`, emits a {RoleRevoked} event. Requirements: - the caller must have ``role``'s admin role. May emit a {RoleRevoked} event."
      },
      "supportsInterface(bytes4)": {
        "details": "See {IERC165-supportsInterface}."
      }
    },
    "version": 1
  },
  "userdoc": {
    "kind": "user",
    "methods": {},
    "version": 1
  }
}